:100000000C944C000C9456000C9456000C94560022
:100010000C9456000C9456000C9456000C94560008
:100020000C9456000C9456000C9456000C945600F8
:100030000C9456000C9456000C9456000C945600E8
:100040000C9456000C9456000C9456000C945600D8
:100050000C9456000C9456000C9456000C945600C8
:100060000C9456000C9456000C9456000C945600B8
:100070000C9456000C9456000C9456000C945600A8
:100080000C9456000C9456000C94560073657269DB
:10009000616C74657374000011241FBECFEFD0E44F
:1000A000DEBFCDBF0E94B3000C94BD000C940000D5
:1000B0001092C5008CE08093C40086E08093C2005B
:1000C00088E18093C1000895E0ECF0E0808188230E
:1000D000ECF78091C6000895E0ECF0E0908195FF88
:1000E000FDCF8093C6000895CF93DF93EC01FC0110
:1000F0008491882341F021960E946C00FE01219694
:1001000084918823C9F7DF91CF910895CF93DF932E
:10011000EC018881882331F021960E946C0089913E
:100120008823D9F7DF91CF910895EF92FF920F9333
:100130001F93CF93DF937B01161617066CF4082FDD
:10014000192FC0E0D0E0F80181918F010E946C006E
:100150002196CE15DF05BCF3DF91CF911F910F9152
:10016000FF90EF900895CF93DF930E945800CCE862
:0E017000D0E0CE010E947400FCCFF894FFCFC7
:00000001FF
